:10000000DCC600000C94B0300C9485300C945A304F
:100010000C942F300C9404300C94D92F0C94AE2FE8
:100020000C94832FFBC60000F9C60000F7C6000041
:10003000F5C60000F3C60000F1C60000EFC60000E0
:10004000EDC60000EBC60000E9C60000E7C60000F0
:10005000E5C60000E3C60000E1C600000C94392F9D
:10006000DDC600000C94032F0C94D92ED7C60000D7
:10007000D5C60000D3C60000D1C60000CFC6000020
:10008000CDC60000CBC60000C9C60000C7C6000030
:10009000C5C60000C3C60000C1C600000C94DB301A
:1000A000BDC60000BBC60000B9C60000B7C6000050
:1000B000B5C60000B3C60000B1C60000AFC6000060
:1000C000ADC60000ABC60000A9C60000A7C6000070
:1000D000A5C60000A3C60000A1C600009FC6000080
:1000E0009DC600003A20003A003A005761726E69DE
:1000F0006E673A204D6178696D756D204E756D6241
:100100006572206F662046696C6573205265616375
:100110006865640000000000003E5B4F5B3E3E6B84
:100120004F6B3E1C3E7C3E1C183C7E3C181C577D91
:10013000571C1C5E7F5E1C00183C1800FFE7C3E7DD
:10014000FF0018241800FFE7DBE7FF30483A060EEF
:100150002629792926407F050507407F05253F5A36
:100160003CE73C5A7F3E1C1C08081C1C3E7F1422A6
:100170007F22145F5F005F5F06097F017F00668951
:10018000956A606060606094A2FFA29408047E0497
:100190000810207E201008082A1C08081C2A0808BD
:1001A0001E101010100C1E0C1E0C30383E3830067D
:1001B0000E3E0E06000000000000005F0000000779
:1001C000000700147F147F14242A7F2A12231308A7
:1001D000646236495620500008070300001C224183
:1001E000000041221C002A1C7F1C2A08083E080827
:1001F00000807030000808080808000060600020D7
:10020000100804023E5149453E00427F40007249B9
:100210004949462141494D331814127F102745455D
:1002200045393C4A49493141211109073649494973
:1002300036464949291E00001400000040340000E1
:10024000000814224114141414140041221408024A
:10025000015909063E415D594E7C1211127C7F49BD
:100260004949363E414141227F4141413E7F494912
:1002700049417F090909013E414151737F0808083E
:100280007F00417F41002040413F017F081422410F
:100290007F404040407F021C027F7F0408107F3E69
:1002A0004141413E7F090909063E4151215E7F09D6
:1002B000192946264949493203017F01033F40403D
:1002C000403F1F2040201F3F4038403F6314081428
:1002D0006303047804036159494D43007F41414160
:1002E0000204081020004141417F04020102044041
:1002F00040404040000307080020545478407F28C5
:100300004444383844444428384444287F385454BA
:10031000541800087E090218A4A49C787F080404DD
:100320007800447D40002040403D007F102844007C
:1003300000417F40007C047804787C08040478380D
:1003400044444438FC1824241818242418FC7C083D
:10035000040408485454542404043F44243C4040BA
:10036000207C1C2040201C3C4030403C442810286D
:10037000444C9090907C4464544C440008364100B6
:100380000000770000004136080002010204023C30
:100390002623263C1EA1A161123A4040207A3854FF
:1003A0005455592155557941225454784221555478
:1003B000784020545579400C1E52721239555555CB
:1003C00059395454545939555454580000457C41B6
:1003D0000002457D420001457C407D1211127DF0F6
:1003E000282528F07C545545002054547C547C0A20
:1003F000097F4932494949323A4444443A324A48E9
:1004000048303A4141217A3A42402078009DA0A0EC
:100410007D3D4242423D3D4040403D3C24FF24243E
:10042000487E4943662B2FFC2F2BFF0929F620C05D
:10043000887E090320545479410000447D413048AE
:10044000484A32384040227A007A0A0A727D0D19F1
:10045000317D2629292F28262929292630484D4053
:1004600020380808080808080808382F10C8ACBA4F
:100470002F102834FA00007B000008142A142222CE
:10048000142A14085500550055AA55AA55AAFF5517
:10049000FF55FF000000FF00101010FF001414149F
:1004A000FF001010FF00FF1010F010F0141414FCE7
:1004B000001414F700FF0000FF00FF1414F404FC04
:1004C000141417101F10101F101F1414141F0010E5
:1004D0001010F0000000001F101010101F1010105E
:1004E00010F010000000FF1010101010101010106D
:1004F000FF10000000FF140000FF00FF00001F10AD
:10050000170000FC04F414141710171414F404F466
:100510000000FF00F714141414141414F700F71457
:100520001414171410101F101F141414F4141010A6
:10053000F010F000001F101F0000001F140000004A
:10054000FC140000F010F01010FF10FF141414FF42
:10055000141010101F00000000F010FFFFFFFFFF3D
:10056000F0F0F0F0F0FFFFFF0000000000FFFF0FD1
:100570000F0F0F0F3844443844FC4A4A4A347E0275
:10058000020606027E027E026355494163384444F6
:100590003C04407E201E2006027E020299A5E7A5AB
:1005A000991C2A492A1C4C7201724C304A4D4D301C
:1005B0003048784830BC625A463D3E494949007E41
:1005C0000101017E2A2A2A2A2A44445F44444051D8
:1005D0004A444040444A51400000FF0103E080FF8C
:1005E000000008086B6B083612362436060F090F18
:1005F00006000018180000001010003040FF010134
:10060000001F01011E00191D1712003C3C3C3C005C
:1006100000000000000103070F1F3F7F0080C0E0C3
:10062000F0F8FCFE00002100240027002A002D0025
:100630003000330001010000040107010A01DB4022
:10064000A4A62EAF2000A1C8D300408DAED580A8AF
:1006500000002200250028002B002E00310034006D
:1006600002010000050108010B010000600000000C
:100670000000000000000000000000E0000000009A
:1006800000000000000000000001E0000000000089
:10069000000000000000000001F000000000000069
:1006A0000000000000000003F00000000000000057
:1006B00000000000000007F0000000000000000043
:1006C000000000000007F80000000000000000002B
:1006D000000000000FF800000003C0007E000001D1
:1006E000E0007F0FF800000003C000FE000001E002
:1006F00000FFEFF800000003C000FE000001E00072
:10070000FFFFF800000003C000F00000000F007FB2
:10071000FE7FC0000003C000F00000000F003FFE9D
:100720007FF83FF1FBCFFCFEF3BC3DEFE01FFE7F07
:10073000FF7FFBFFDFFEFEFFBC3DEFE01FC6FFFFBC
:100740007FFBFFDFFEFEFFBC3DEFE00FE3C7FE785F
:100750007BC3DE1EF0FFBC3DEF0007FF87FC787B0C
:10076000C3DE1EF0F83C3DEF0001FFFFF0007BC34D
:10077000C01EF0F03C3DEF0001F37FE03FFBC3CF34
:10078000FEF0F03C3DEF0003E33F807FFBC3DFFE64
:10079000F0F03C3DEF0007E73C00787BC3DE1EF045
:1007A000F03C3DEF0007FFBE00787BC3DE1EF0F09B
:1007B0003C3DEF0007FFFE00787BC3DE1EF0F03CFF
:1007C0003DEF000FFFFE007FFBFFDFFEF0F03FFD7F
:1007D000EFE00FFFFF007FFBFFDFFEF0F03FFDEFDC
:1007E000E00FF9FF003E79F9CF9EF0F01F3DE7E002
:1007F0001FF1FF0000000000000000000000001FCB
:1008000080FF007FFFFFFFFFFFFFFFFFFFE01C00F7
:100810007F007FFFFFFFFEB46D888D18E000001F92
:10082000007FFFFFFFFE95AD7DB577E000000F0074
:100830007FFFFFFFFEA5AD9D8D19E0000006007F44
:10084000FFFFFFFEB5ADEDB57EE00000000000004B
:100850000000000000000000000000000000000098
:100860000000000000000000000000000000000088
:100870000000000000000000000000000000000078
:100880000000000000000000000000000000000068
:100890000000000000000000000000000000000058
:1008A0000000000000000000000000000000000048
:1008B0000000000000000000000000000000000038
:1008C000000000000000000000E800000000000040
:1008D00000000000000000000038000000000000E0
:1008E00000000000000000000028000000000000E0
:1008F00000000000000000000028007FFE001FFF35
:10090000FE003FFF000FF8003F00007FFE001FFFCA
:10091000FF803FFF000FF8003F0000FFFF003FFF98
:10092000FF807FFF801FF8007F0000FFFF003FFF78
:10093000FF807FFF801FF8007F0000FFFF007FFF28
:10094000FFC0FFFF803FFC00FF0001FFFF807FFF33
:10095000FFC0FFFFC03FFC00FF0001FFFF807FFFE3
:10096000FFC0FFFFC03FFE00FF00001FDFC007FF0A
:10097000FFC00FEFC007FE01FF00001FDFC007E050
:100980001FC00FEFC003FE01FF00001F8FC007E074
:100990000FC00FC7E003FF03FF00001F8FC007E079
:1009A0000FC00FC7E003FF03FF00001F8FE007E049
:1009B0000FC00FC7F003FF03FF00001F8FE007E029
:1009C0000FC00F87F003FF03FF00001F8FF007E049
:1009D0000FC00F87F003FF87FF00003F07F007E01D
:1009E0000FC01F83F803FFCFFF00003F07F007E0B1
:1009F0000FC01F83F803FFCFFF00007E03F807E05E
:100A00000FC03F01FC03FFCFFF00007E03F807E0AB
:100A10000FC03F01FC03FFCFFF00007FFFF807E09E
:100A20000FC03FFFFC03EFFFDF00007FFFF807E090
:100A30000FC03FFFFC03EFFFDF0000FFFFFC07E0FC
:100A40000FC07FFFFE03E7FFDF0000FFFFFC07E0B2
:100A50000FC07FFFFE03E7FFDF0000FFFFFE07E0A0
:100A60000FC0FFFFFF03E7FF9F0001FFFFFE07E04E
:100A70000FC0FFFFFF03E7FF9F0001FFFFFE07FF1F
:100A8000FFC0FFFFFF03E3FF1F0003FFFFFF07FFA0
:100A9000FFC1FFFFFF83E1FF1F0003FFFFFF07FF11
:100AA000FFC1FFFFFF83E1FF1F0003F8003F87FF47
:100AB000FFC3FC003FC3E1FF1F0003F8003F87FFB7
:100AC000FFC3FC003FC3E1FE1F0007F0003F87FFAC
:100AD000FF83F8001FC3E0FC1F0007F0003F87FF03
:100AE000FF83F8001FC3E0FC1F000FE0001FC7FFDB
:100AF000FF87F0000FE3E0FC1F000FE0001FC7FFBF
:100B0000F207F0000FE3E0FC1F000000000000000F
:100B100000000000000000000000000000000000D5
:100B200000000000000000000000000000000000C5
:100B3000000000000000000000000000000001F1C3
:100B4000F80FC7E3F00000000000000000000319E8
:100B50008C0C663310000000000000000000030D44
:100B60008C0C663318000000000000000000030138
:100B7000840C26130800000000000000000001E1C2
:100B8000860C361B18000000000000000000003931
:100B9000860C361BF0000000000000000000000979
:100BA000840C26130000000000000000000006096D
:100BB0008C0C6633000000000000000000000319E8
:100BC0008C0C66330000000000000000000001F102
:100BD000F80FC7E300000000000000000000000064
:100BE0000000000000000000000000000000000005
:100BF00000000000000000000000000000000000F5
:100C000000000000000000000000000000000000E4
:100C100000000000000000000000000000000000D4
:100C200000000000000000000000000000000000C4
:100C300000000000000000000000000000000000B4
:100C40000000000000000000000053534431333026
:100C50003620616C6C6F636174696F6E20666169C8
:100C60006C6564004368616E67696E6720746F200D
:100C70004469726563746F72793A20004368616EEB
:100C800067696E6720746F204469726563746F7260
:100C9000793A20004368616E67696E6720746F203F
:100CA0004469726563746F72793A20004368616EBB
:100CB00067696E6720746F204469726563746F7230
:100CC000793A2000000020002300260029002C0093
:100CD0002F00320000010000030106010901050593
:100CE0000505070508080808020202020A0A0808A2
:100CF00004040404010101010101010103030303D0
:100D000003030303040707070C0C0C0C0C0C0C0C5E
:100D10000202020206060606060606060B0B0B0B6F
:100D20000B0B0B0B01021020200808102040102094
:100D3000408002010201080402010102040810209F
:100D4000408080402010080402018004020180409D
:100D50002010080402010804020101020408102006
:100D60004080010204081020408000000A0B0209A4
:100D70000C0D0E0807030401000000000000000035
:100D80000000000000000000000000000000000063
:100D90000000000000001211100000000000000020
:100DA0000000000000000000000000000000000043
:100DB0002200FF210000FF31723D11241FBECFEF42
:100DC000D1E2DEBFCDBF00E00CBF2FE0AAE5B3E06B
:100DD00001C01D92A633B207E1F713E0A0E0B2E034
:100DE000E4E9F0E800E00BBF02C007900D92AA35DD
:100DF000B107D9F716E0CCEDD6E000E006C02197A8
:100E00000109802FFE010E94DD3DCB3DD10780E02E
:100E10000807A9F70E94C7320C943940F1C8089519
:100E20000895089508950895DB0114964D915C91FD
:100E300015976D917C91DC01ED91FC910280F3811D
:100E4000E02D1994AF92BF92CF92DF92EF92FF9272
:100E50000F931F93CF93DF936C017B018B01040FE2
:100E6000151FEB015E01AE18BF08C017D10759F07E
:100E70006991D601ED91FC910190F081E02DC601C0
:100E80001995892B79F7C501DF91CF911F910F91AA
:100E9000FF90EF90DF90CF90BF90AF900895FC014E
:100EA000538D448D252F30E0842F90E0821B930BCF
:100EB000541710F0CF96089501970895FC01918D75
:100EC000828D981761F0A28DAE0FBF2FB11D5D9678
:100ED0008C91928D9F5F9F73928F90E008958FEF1A
:100EE0009FEF0895FC01918D828D981731F0828DCE
:100EF000E80FF11D858D90E008958FEF9FEF089525
:100F0000FC01918D228D892F90E0805C9F4F821B88
:100F100091098F73992708958BEA9BE0F1DF21E017
:100F2000892B09F420E0822F0895FC01A48DA80FDD
:100F3000B92FB11DA35ABF4F2C91848D90E001961B
:100F40008F739927848FA689B7892C93A089B1893B
:100F50008C91837080648C93938D848D981306C0DC
:100F60000288F389E02D80818F7D80830895EF9240
:100F7000FF920F931F93CF93DF93EC0181E0888F53
:100F80009B8D8C8D98131AC0E889F989808185FF23
:100F900015C09FB7F894EE89FF896083E889F989C5
:100FA00080818370806480839FBF81E090E0DF91C7
:100FB000CF911F910F91FF90EF900895F62E0B8D1A
:100FC00010E00F5F1F4F0F731127E02E8C8D8E11D5
:100FD0000BC00FB607FCFACFE889F989808185FF3D
:100FE000F5CFCE01A2DFF2CFEB8DEC0FFD2FF11D7F
:100FF000E35AFF4FF0829FB7F8940B8FEA89FB8981
:1010000080818062D0CF0F931F93CF93DF938C01A9
:10101000D0E0C0E0F801EC0FFD1F6491662339F0C9
:101020008BEA9BE0A4DF892B11F02196F3CFCE0150
:10103000DF91CF911F910F910895CF93DF93EC0132
:10104000888D8823B1F0AA89BB89E889F9898C91B8
:1010500085FD03C0808186FD0CC00FB607FCF7CF6D
:101060008C9185FFF2CF808185FFEDCFCE015DDFD2
:10107000EACFDF91CF91089580E090E0892B21F0B5
:101080004BDF81110E94000080E090E0892B49F045
:1010900080E090E0892B29F00E94000081110E94DD
:1010A000000080E090E0892B49F080E090E0892BFF
:1010B00029F00E94000081110E94000080E090E071
:1010C000892B49F080E090E0892B29F00E940000F4
:1010D00081110C94000008958150823108F05AC0AB
:1010E000E82FF0E08827E858F74F8F4F0C94DD3D4C
:1010F00098089C088A0890089408CA089F08A508C0
:10110000A908AF08B308B708BD08C108CA08C508D0
:10111000CB08CF08809180008F778093800008955E
:10112000809180008F7DF9CF80918000877FF5CFFF
:1011300084B58F7784BD089584B58F7DFBCF809172
:10114000B0008F778093B00008958091B0008F7DBC
:10115000F9CF809190008F778093900008958091CF
:1011600090008F7DF9CF80919000877FF5CF80919F
:10117000A0008F778093A00008958091A0008F7DBC
:10118000F9CF8091A000877FF5CF809120018F77E4
:10119000809320010895809120018F7DF9CF809167
:1011A0002001877FF5CFCF93DF93EEE8FDE08491B8
:1011B000E8E4FDE0D491E2E0FDE0C491CC2399F0B5
:1011C00081118ADFEC2FF0E0EE0FFF1FEC53F34F9D
:1011D000A591B491EC91ED2381E090E009F480E0D9
:1011E000DF91CF91089580E090E0FACF1F93CF93E5
:1011F000DF93282F30E0F901E659F24F8491F9018D
:10120000EC5DF24FD491F901E252F34FC491CC233B
:10121000A1F0162F811160DFEC2FF0E0EE0FFF1F21
:10122000E05BF94FA591B4918FB7F894EC9111114F
:1012300008C0D095DE23DC938FBFDF91CF911F9143
:101240000895DE2BF8CFCF93DF9390E0FC01EC5DA7
:10125000F24F24918252934FFC0184918823C9F06C
:1012600090E0880F991FFC01EC5DF94FA591B491B6
:10127000FC01E05BF94FC591D49161110DC09FB79E
:10128000F8948C91209582238C938881282328833D
:101290009FBFDF91CF910895623051F49FB7F894CA
:1012A0003C91822F809583238C93E8812E2BEFCF66
:1012B0008FB7F894EC912E2B2C938FBFEACF3FB7CA
:1012C000F8948091250A9091260AA091270AB0915E
:1012D000280A26B5A89B05C02F3F19F00196A11D2D
:1012E000B11D3FBFBA2FA92F982F8827BC01CD0170
:1012F000620F711D811D911D42E0660F771F881FCF
:10130000991F4A95D1F708958F929F92AF92BF92FD
:10131000CF92DF92EF92FF924B015C01D0DF6B0125
:101320007C01CDDF6C197D098E099F09683E7340F1
:1013300081059105B0F321E0821A9108A108B10856
:1013400088EEC80E83E0D81EE11CF11C81149104C4
:10135000A104B10431F7FF90EF90DF90CF90BF90E0
:10136000AF909F908F9008952FB7F8946091210AC5
:101370007091220A8091230A9091240A2FBF089528
:101380008EBD0DB407FEFDCF08958FEF8EBD0DB459
:1013900007FEFDCF8EB508950F931F93CF93DF9374
:1013A000EC01E2DF8B01F1DF8F3F61F0DDDF601BDD
:1013B000710BC617D707B8F780E0DF91CF911F9167
:1013C0000F91089581E0F9CFFC019C01255F3F4F0B
:1013D00080E080FB879587F99191890F2E173F0751
:1013E000C1F7089585ED8093BC008091BC0084FD19
:1013F000FCCF10922F0A08952091D909260F332788
:10140000331F21323105ECF420912F0AFC0190E0CA
:1014100080E0243069F082E00895A091D9092191FB
:10142000AC014754564FA40FB52FB11D2C93019614
:10143000861798F38091D909680F6093D90980E0E5
:10144000089581E00895E091310A8091300AE8170B
:1014500030F4F0E0E756F64F808190E008958FEF8A
:101460009FEF08959091310A8091300A2FEF3FEF5E
:10147000981748F4E92FF0E0E756F64F208130E066
:101480009F5F9093310AC90108958091300A90912D
:10149000310A891B990B0895CF92DF92EF92FF9248
:1014A0000F931F93CF93DF937C01CB018A0120918F
:1014B000AA0B222389F0EB016B01C40ED51ECC15BB
:1014C000DD0561F06991D701ED91FC910190F0810A
:1014D000E02DC7011995F3CF642F8EDFC801DF918E
:1014E000CF911F910F91FF90EF90DF90CF900895D3
:1014F000CF93DF931F92CDB7DEB769832091AA0BFC
:101500002223F9F02091A70B203258F021E030E09F
:10151000FC013383228390E080E00F90DF91CF9134
:1015200008958091A80BE82FF0E0E758F64F9981D5
:1015300090838F5F8093A80B8093A70B81E090E04E
:10154000ECCF61E0CE01019657DFF8CF2091A70BD9
:1015500081E0213208F044C080912F0A8111FCCF34
:101560008091A90B92E090932F0A91E090932E0A1C
:101570009FEF9093FC0910921E0A20931D0AA9E781
:10158000B9E0EDEFF9E090E0291331C010921F0AA5
:1015900090911F0A880F892B80931F0A80912D0A32
:1015A000813049F510922D0A80911F0A8093BB006B
:1015B0008091BC0083FDF8CF85EC8093BC008091C6
:1015C0002F0A8230E1F38091FC098F3FB1F08091C6
:1015D000FC098032A1F08091FC09803391F084E015
:1015E0001092A80B1092A70B1092AA0B08953D9190
:1015F00031939F5FC9CF85EEE0CF80E0F1CF82E0ED
:10160000EFCF83E0EDCFCF93CFB7F89480917809F7
:10161000811123C0E3E1FDE08491E9E5FDE09491CF
:10162000E82FF0E0EE0FFF1FEC5DF94FA591B491AC
:10163000EC91E92319F461E085E3D8DD61E085E30D
:1016400002DE8CB580618CBD8CB580648CBD61E0A0
:1016500084E3F9DD61E083E3F6DD809178098F5F53
:1016600080937809CFBFCF910895EF92FF920F93A7
:101670001F93CF93DF93EC01EC80FD806E157F0507
:101680000CF070C057FF04C0240F351F50E040E03D
:101690008E819F81FA01E20FF31F8E179F071CF4C2
:1016A0009C01241B350B121613060CF05BC0922F05
:1016B000842F8695869586958E9DD0018F9DB00D41
:1016C00011246A0F7B1FAF8DB8A1A60FB71F4770FB
:1016D00049F188E0841B482F682F70E0FB01E45E2D
:1016E000F94FE491281708F063C0621B71092FEFCE
:1016F00030E002C0359527956A95E2F7E223013084
:10170000110539F0B0F10230110561F58C91E8272F
:1017100002C08C91E82BEC93941720F12C813D8131
:10172000A20FB31FE92FE41BE83078F00230110557
:1017300021F58E2F9C9190959C932C813D81A20F39
:10174000B31F88508830B0F7E770EE2359F0F0E00F
:10175000EC5EF94FE49101301105F9F010F102301F
:10176000110519F1DF91CF911F910F91FF90EF902B
:101770000895E0958C91E823CECF81E00115110505
:1017800009F480E081959E2F8C932C813D81A20FDE
:10179000B31F98509830C0F7D7CF8C91E82BEC93BB
:1017A000E1CFE0958C91E823FACF8C91E827F7CF31
:1017B0000130110509F4ADCFE0F20230110509F452
:1017C000A5CFAE0DBF1DAECF0F931F93CF93DF9369
:1017D00077FF04C0260F371F70E060E0DC0114962D
:1017E000CD91DC91FB01E20FF31FCE17DF071CF454
:1017F0009E01261B370B121613064CF5FA0157FDF6
:101800003796A3E0F595E795AA95E1F7EC9FD0010F
:10181000ED9FB00DFC9FB00D11246A0F7B1FDC0102
:101820005F96ED91FC91E60FF71F4770552781E019
:1018300090E001C0880F4A95EAF7482F0130110562
:1018400059F0A8F02E0F3F1F02301105E1F0DF9193
:10185000CF911F910F9108952E0F3F1FE217F307AD
:10186000B1F38191DF011197842B8C93F7CF809591
:101870002E0F3F1FE217F30751F39191DF011197EC
:1018800098239C93F7CFE217F30709F38191DF01C7
:10189000119784278C93F7CF0F931F93FA01DC01E4
:1018A00056964C9156974230E1F0433091F14130D9
:1018B00059F514964D915C91DA01AE1BBF0BFD01F9
:1018C000E21BF30B77FD0AC0DC0116964D915C918B
:1018D000641775071CF4AB01BF0176DF1F910F91F0
:1018E000089514964D915C91DA01A61BB70BBD01CA
:1018F00061507109DC0116964D915C91DA01AE1BC5
:10190000BF0BFD01E21BF30B77FDE8CFAF01ADDEAE
:10191000E5CF16964D915C91DA01A61BB70BBD0180
:1019200061507109CFCF0F931F93FA01DC015696D6
:101930004C9156974230A1F0433081F1413011F57E
:1019400014964D915C91DA01AE1BBF0BFD013197EE
:10195000F7FD03C0AB01BF0188DE1F910F91089511
:1019600014964D915C91DA01A61BB70BBD01DC0109
:1019700016964D915C91DA01AE1BBF0BFD013197BC
:10198000621B730BF7FDE9CFDC0116964D915C915C
:10199000E417F50714F7AF0117DFDFCF16964D9167
:1019A0005C91DA01A61BB70BBD01621B730BD0CF94
:1019B000FC0177FD64C080859185681779070CF07C
:1019C0005EC057FD5CC082859385481759070CF0AF
:1019D00056C086898230B1F0833029F1813041F4DC
:1019E00084819581841B950BAB01BC016150710909
:1019F0002130310509F108F443C02230310509F4E2
:101A000063C0089584819581DC01A61BB70BBD01DD
:101A10006150710986819781DC01A41BB50BAD0172
:101A200041505109E5CF86819781861B970BBA01FA
:101A3000AC0141505109DCCFCA0157FD0796A3E024
:101A400095958795AA95E1F7A481B5818A9F900124
:101A50008B9F300D9A9F300D1124620F731F078CDE
:101A6000F0A1E02DE60FF71F4770552721E030E089
:101A700001C0220F4A95EAF78081822B8083089566
:101A8000CA0157FD079633E0959587953A95E1F79A
:101A9000A481B5818A9F90018B9F300D9A9F300D54
:101AA0001124620F731F078CF0A1E02DE60FF71FC2
:101AB0004770552781E090E001C0880F4A95EAF70A
:101AC000809590818923DACFCA0157FD079623E0DC
:101AD000959587952A95E1F7A481B5818A9F900114
:101AE0008B9F300D9A9F300D1124620F731F078C4E
:101AF000F0A1E02DE60FF71F4770552721E030E0F9
:101B000001C0220F4A95EAF780818227B7CF089556
:101B1000CF93DF93FC012381222351F0EC0101805C
:101B2000F281E02D61E0828161DB8FEF29DC1B8295
:101B3000DF91CF910895EF92FF920F931F93CF9370
:101B4000DF93EC017B0110DC8B011FDC8C838F3F6A
:101B500091F40ADC601B710B693E7340B0F385E5BC
:101B60008883CE01D5DF80E0DF91CF911F910F9167
:101B7000FF90EF9008958E3F11F080E5F1CF8FEF49
:101B80008EBDF701D701A150BE4F9FEF0DB407FEE8
:101B9000FDCF8EB59EBD8193AE17BF07B9F70DB4CB
:101BA00007FEFDCF8EB58C931C82EFDBEEDB81E070
:101BB000DBCF0F931F93CF93DF938C01862FEA0126
:101BC000DFDB88818EBD8981FE013296DE5F0DB438
:101BD00007FEFDCF8EBDEC17FD0711F08191F7CF09
:101BE0000DB407FEFDCF8FEFCBDB8FEFC9DBCDDB75
:101BF000F80184838F71853051F087E58083C801B7
:101C000087DF80E0DF91CF911F910F91089581E0F0
:101C1000F9CF8EBD00000DB407FEFDCF8EB508953F
:101C2000FF920F931F93CF93DF93F82ED92FC62FD8
:101C300080910F0F9091100F009709F450C02091E0
:101C4000130F31E03093AA0B2093A90B1092A80B2D
:101C50001092A70BDC01ED91FC910190F081E02D39
:101C600060E019950F2D1D2FD1E0FF24F394C15092
:101C700080910F0F9091100FCF3F59F1D032C0F0EB
:101C800065DC80910F0F9091100F2091130FF0924F
:101C9000AA0B2093A90B1092A80B1092A70BDC01A2
:101CA000ED91FC910190F081E02D60E01995D1E07B
:101CB00080910F0F9091100FF8016491DC01ED916C
:101CC000FC910190F081E02D1995DF5F0F5F1F4FB0
:101CD000CECFDF91CF911F910F91FF9037CCE09144
:101CE0001F0FF091200F90818091250F80958923FF
:101CF00080830F2D1D2FC15008F437C0F801849147
:101D000020910D0F30910E0F232B21F082DF0F5FFA
:101D10001F4FF1CF28E030E040E8E0911B0FF09139
:101D20001C0F9091230F582F5423D9F05081952BDD
:101D30009083E0911D0FF0911E0F90815091240F20
:101D4000952B9083E0911D0FF0911E0F5081909183
:101D5000240F909595239083469521503109E9F6FB
:101D6000D6CF508190959523E3CFDF91CF911F91EE
:101D70000F91FF9008951F93CF93DF93EC018D8D0A
:101D80009E8D009719F1162F29A131E03093AA0BEF
:101D90002093A90B1092A80B1092A70BDC01ED91D8
:101DA000FC910190F081E02D60E019958D8D9E8D64
:101DB000DC01ED91FC910190F081E02D612F1995EE
:101DC0008D8D9E8DDF91CF911F91C0CBADA5BEA50E
:101DD0009C918BA9809589238C938B8D9C8D892BCD
:101DE00029F0862FDF91CF911F9113CF28E030E0AB
:101DF00080E8A9A5BAA599A9462F4823C1F04C911E
:101E0000942B9C93ABA5BCA59C914AA9942B9C9325
:101E1000ABA5BCA54C919AA9909594239C938695CB
:101E20002150310931F7DF91CF911F9108954C91E5
:101E300090959423E6CF8CBD9DBD0895EF92FF92BF
:101E40000F931F93CF93DF9380910F0F9091100FFB
:101E5000892B09F490C02091270F3091280F4091D1
:101E6000290F50912A0F60E074E284EF90E00E9405
:101E7000BB3D205131094109510956954795379588
:101E800027952093B80065E080EB9DE0C9DE609166
:101E9000F60E615082EF9EE06EDF2091F80E3091D9
:101EA000F90EC901079697FD079623E0959587954A
:101EB0002A95E1F72091F60E3091F70E829F80016E
:101EC000839F100D929F100D1124C091110FD0917E
:101ED000120F80910F0F9091100F0C0F1D1F009784
:101EE00009F486C02091130F31E03093AA0B2093A0
:101EF000A90B1092A80B1092A70BDC01ED91FC919D
:101F00000190F081E02D60E41995FF24F394EE2414
:101F1000E39480910F0F9091100F0C171D0709F497
:101F200040C0BFE1BF15C8F411DB80910F0F909145
:101F3000100F2091130FE092AA0B2093A90B10927F
:101F4000A80B1092A70BDC01ED91FC910190F081A0
:101F5000E02D60E41995FF24F39480910F0F909188
:101F6000100F6991DC01ED91FC910190F081E02D61
:101F70001995F394CECF80910D0F90910E0F892B70
:101F800029F08091300F9091310F55DFE091210FB2
:101F9000F091220F90818091260F80958923808374
:101FA00072CFD4DA80910F0F9091100F892B09F422
:101FB0005FC020912B0F30912C0F40912D0F50912D
:101FC0002E0F60E074E284EF90E00E94BB3D205150
:101FD0003109410951095695479537952795209321
:101FE000B800DF91CF911F910F91FF90EF9008956E
:101FF000E0911F0FF091200F80819091250F892B88
:1020000080830C171D0771F2899120910D0F30917B
:102010000E0F232B11F0FDDDF4CF28E030E040E877
:10202000E0911B0FF0911C0F9091230F582F542318
:10203000D9F05081952B9083E0911D0FF0911E0FE8
:1020400090815091240F952B9083E0911D0FF0917A
:102050001E0F50819091240F909595239083469563
:1020600021503109E9F6CDCF508190959523E3CFEA
:10207000E091210FF091220F80819091260F892B02
:102080008083AFCFCF93DF93FC01238121110EC05A
:10209000EC010180F281E02D80819181CCDEE9812B
:1020A000FA8160E08281A2D881E08B83DF91CF91B9
:1020B0000895DF92EF92FF920F931F93CF93DF93D8
:1020C0008C01C62FD22FF32EE42ED52EFC01838156
:1020D000811102C0C801D6DFCC2319F08CE291E057
:1020E0005BD98C2F80644CD98D2D4AD98E2D48D93F
:1020F0008F2D46D98D2F44D987E8C11101C085E9BC
:102100003FD943D9CBE041D9F801848387FF02C08E
:10211000C150C9F7DF91CF911F910F91FF90EF90C0
:10212000DF9008950F931F93CF93DF93EC01890104
:102130008D81833039F089E0440F551F661F771F6A
:102140008A95D1F79A01AB0168E1CE01B2DF88230D
:1021500031F082E38883CE01DBDC10E01CC0A801F3
:102160006EEFCE0126DD8823B1F380ED97E014D920
:10217000182F8AE5112371F320E030E0A9016DE00A
:10218000CE0197DF882311F089E2E4CFFED88111D8
:10219000FBCFCE01BDDC812FDF91CF911F910F913D
:1021A0000895EF92FF921F93CF93DF93FC0120815C
:1021B00011E020FF13C0EC017C01F7E0EF0EF11CF1
:1021C0004B815C816D817E81E981FA8197018081FB
:1021D0009181A8DF182F811108C010E0812FDF91B5
:1021E000CF911F91FF90EF900895888181FD04C0E9
:1021F00088818E7F8883F2CFE981FA814B815C816F
:102200006D817E8184859585A685B785480F591F88
:102210006A1F7B1F97018081918184DF8111E8CF44
:10222000DCCF0F931F93CF93DF93EC0189018D8156
:10223000833039F089E0440F551F661F771F8A9558
:10224000D1F79A01AB0161E1CE0133DF882331F090
:1022500080E38883CE015CDC10E008C0B801CE01C9
:102260006ADC182F8823B1F3CE0152DC812FDF9175
:10227000CF911F910F910895CF92DF92EF92FF922D
:102280001F93CF93DF93EC016A017B01122F8B81A7
:102290009C81AD81BE818C159D05AE05BF05A9F061
:1022A000CE017FDF81110AC090E080E0DF91CF9105
:1022B0001F91FF90EF90DF90CF90089512FF0CC018
:1022C0001882CB82DC82ED82FE8213708881182B0B
:1022D0001883CE010796EACFE981FA819E01295F32
:1022E0003F4FB701A601808191819BDF8111E8CF2B
:1022F000DBCF8F929F92AF92BF92CF92DF92EF92FD
:10230000FF920F931F931092770C41E050E060E032
:1023100070E040937A0C50937B0C60937C0C70932C
:102320007D0C22E73CE03093940C2093930C1092A8
:10233000920C4FEF5FEFBA014093950C5093960CBF
:102340006093970C7093980C882309F44EC020E09A
:1023500040E050E0BA0182E99CE08EDF009761F432
:1023600080E01F910F91FF90EF90DF90CF90BF9092
:10237000AF909F908F900895FC01E254FE4F208112
:102380002F7771F78A539E4FFC01C080D180E28085
:10239000F380C114D104E104F10411F320E0B7018A
:1023A000A60182E99CE068DFFC01892BC9F28385E4
:1023B000948581159240A1F68089823089F68685C0
:1023C0009785892B69F225852093740C8FEF820FF6
:1023D0008093750C80E091E0291769F08F5F893058
:1023E00041F488E08093760CBBCFC12CD12C7601D0
:1023F000D5CF990FF1CF8093760C4689578970E03D
:1024000060E04115510521F444A155A166A177A1D1
:1024100040937E0C50937F0C6093800C7093810CE2
:102420002685378546015701820E931EA11CB11CDB
:102430008092860C9092870CA092880CB092890CA6
:10244000218932893093790C2093780C440F551FE1
:10245000661F771F480D591D6A1D7B1D40938E0C0A
:1024600050938F0C6093900C7093910C218932895A
:10247000A5E0220F331FAA95E1F721503E4F232FED
:1024800033272695420F531F611D711D4093820C07
:102490005093830C6093840C7093850C038914898A
:1024A00030E020E00115110521F400A111A122A1C5
:1024B00033A1C41AD50AE60AF70AC00ED11EE21EDD
:1024C000F31E04C0F694E794D794C7948A95D2F784
:1024D000D701C6010196A11DB11D80938A0C90936E
:1024E0008B0CA0938C0CB0938D0C85EFC8168FE0ED
:1024F000D806E104F10420F48CE08093770C30CF0F
:1025000080E125EFC2162FEFD206E104F10468F056
:1025100084A595A5A6A5B7A580938E0C90938F0C46
:10252000A093900CB093910C80E28093770C81E0A3
:1025300018CFCF93DF93FC012081211104C081E0EB
:10254000DF91CF910895EC01828182FF38C04489E8
:102550005589668977898681978121E080968CDE0E
:10256000009729F489818160898380E0E9CFEC813B
:10257000FD81EF70FF2725E0EE0FFF1F2A95E1F7A1
:10258000E80FF91F309771F38081853E59F38881F8
:1025900083FF08C0888D998DAA8DBB8D848F958F00
:1025A000A68FB78F8C8D9D8D938F828F8C8D9D8DF7
:1025B000AE8DBF8DB58BA48B8A818B7F8A838E81F4
:1025C0009F818096EEDD882369F2B9CFCF93DF93A8
:1025D000EC01AFDF1882DF91CF9108958F929F9227
:1025E000AF92BF92CF92DF92EF92FF920F931F9321
:1025F000423051056105710560F480E01F910F9133
:10260000FF90EF90DF90CF90BF90AF909F908F9012
:102610000895FC01C08CD18CE28CF38CC416D506D5
:10262000E606F70650F3480159016A017B018581EE
:10263000803239F584899589A689B78917E076951E
:102640006795579547951A95D1F7480F591F6A1FF7
:102650007B1F23E0CF0180960FDE009771F2E89494
:10266000C7F8DD24EE24FF24CC0CDD1CCC0CDD1CD3
:102670008C0D9D1DFC0180829182A282B38281E03B
:10268000BDCF803109F0B9CF4489558966897789F2
:102690004D0D511D611D711D23E0CF018096ECDDB4
:1026A000009709F4AACFDD24EE24FF24CC0CDD1C16
:1026B000C80ED91EF60111830083E1CFCF92DF92BD
:1026C000EF92FF920F931F93CF93DF934230510508
:1026D0006105710550F48FEFDF91CF911F910F913C
:1026E000FF90EF90DF90CF900895FC01C08CD18CCB
:1026F000E28CF38CC416D506E606F70660F3890172
:102700006A017B01EC0185818032B1F5848995896C
:10271000A689B789E7E07695679557954795EA9535
:10272000D1F7480F591F6A1F7B1F22E0CE01809608
:10273000A3DD009781F2E894C7F8DD24EE24FF249E
:10274000CC0CDD1CCC0CDD1C8C0D9D1DFC01808196
:102750009181A281B381BF70488D598D6A8D7B8D27
:10276000481759076A077B0730F1F8018083918386
:10277000A283B38381E0B0CF803109F0ACCF44892C
:102780005589668977894D0D511D611D711D22E0A6
:10279000CF01809671DD009709F49DCFDD24EE24F2
:1027A000FF24CC0CDD1CC80ED91EF601808191815E
:1027B000B0E0A0E0D1CF80E08FCF4F925F926F92D8
:1027C0007F928F929F92AF92BF92CF92DF92EF92C1
:1027D000FF920F931F93CF93DF93EC014A015B01AC
:1027E0004C845D846E847F84A881AA2309F485C00B
:1027F000488959896A897B89481559056A057B0585
:1028000069F081149104A104B10451F41C861D8661
:102810001E861F86888A998AAA8ABB8A81E072C02E
:10282000A3FF58C0088D198D2A8D3B8D08151905F9
:102830002A053B0508F461C0EE81FF81848190E0A8
:1028400009968A019B010150110921093109082EBD
:1028500004C036952795179507950A94D2F7750108
:102860006401B1E0CB1AD108E108F10804C0F69484
:10287000E794D794C7948A95D2F7C016D106E2069A
:10288000F30628F0452B462B472B09F051C0A6FF35
:102890004AC0848D958DA68DB78D8C879D87AE8718
:1028A000BF878E01045F1F4FC114D104E104F104FE
:1028B00009F4B0CF4C855D856E857F8598018E814A
:1028C0009F81FCDE91E0C91AD108E108F1081816D1
:1028D0005CF313C0A5FFB0CFEE81FF8186819781A5
:1028E00025E0880F991F2A95E1F7B0E0A0E0881550
:1028F0009905AA05BB0508F08DCF4C865D866E86CE
:102900007F8680E0DF91CF911F910F91FF90EF9034
:10291000DF90CF90BF90AF909F908F907F906F90FF
:102920005F904F9008958C8D9D8DAE8DBF8DB5CFEE
:10293000C01AD10AE20AF30AB4CF3F924F925F92D3
:102940006F927F928F929F92AF92BF92CF92DF92BF
:10295000EF92FF920F931F93CF93DF9300D01F92BC
:10296000CDB7DEB74C01FC01828184608283A680F2
:10297000B7804484558466847784F501C084D1840B
:10298000E284F384C414D504E604F70410F011E0E3
:1029900003C07301620110E0FFEFCF1ADF0AEF0AF4
:1029A000FF0AF501808D918DA28DB38D8C159D054B
:1029B000AE05BF0538F411112FC0C084D184E28464
:1029C000F384E5CF4C145D046E047F0429F19E016D
:1029D0002F5F3F4FB701A601C50170DE87FD1CC008
:1029E0008823D1F289819A81AB81BC81892B8A2B82
:1029F0008B2B91F6112329F0F501C086D186E28652
:102A0000F3860FEF1FEF2FEF3FE0B701A601C501DF
:102A1000E5DD382E811118C0312C832D0F900F90D9
:102A20000F900F90DF91CF911F910F91FF90EF903A
:102A3000DF90CF90BF90AF909F908F907F906F90DE
:102A40005F904F903F9008954114510461047104C8
:102A500031F4F401C486D586E686F786DECF970189
:102A60008601B301A201C501B9DD8111F2CFD4CF36
:102A70001F93CF93DF93EC01162F8D8D9E8D892BA5
:102A8000A9F12DA93EA94FA958AD60E074E284EFE9
:102A900090E00E94BB3D20513109410951095695F2
:102AA0004795379527952093B80066EA111167EA94
:102AB000CE0161D98D8D9E8D892B39F129AD3AAD2D
:102AC0004BAD5CAD60E074E284EF90E00E94BB3DF2
:102AD0002051310941095109569547953795279558
:102AE0002093B800DF91CF911F9108958B8D9C8D1D
:102AF000892B19F08EAD9FAD9ED9EFA5F8A99081D5
:102B00008CA9809589238083D0CFEFA5F8A98081F7
:102B10009CA9892B8083E6CF0895FC016370668BA6
:102B20008481958126813781613039F0633029F0C5
:102B300091878087338722870895318720879387FD
:102B4000828708952F923F924F925F926F927F9269
:102B50008F929F92AF92BF92CF92DF92EF92FF92AD
:102B60000F931F93CF93DF93CDB7DEB76A970FB65E
:102B7000F894DEBF0FBECDBF9A8F898F7A836983A9
:102B80004A01D22E18870F833701BC2CDC015996DD
:102B90002D913C915A972115310509F015C11896D0
:102BA0008D919C911997681779070CF0D7C11A96E7
:102BB0008D919C91481759070CF0D0C14C2C512C89
:102BC000B6E0CB9E600D711D11247C876B871616B5
:102BD00017060CF0C3C1EA2DF0E0FA87E98793E00D
:102BE000EE0FFF1F9A95E1F7F88BEF87CF01840F67
:102BF000951F181619060CF0B1C1A98DBA8D5896FB
:102C00008C91811104C0BFEABD1508F4D394A98D3D
:102C1000BA8DED91FC9111970284F385E02DCD01E1
:102C20001995B5E0DB9EC0011124E981FA81FC838E
:102C3000EB83312C212C9C012C5E3E4F388F2F8B47
:102C40004A2D50E05E8B4D8BEF89F88DE20DF31D20
:102C500044919E828D82D12CC12C69817A81620D32
:102C6000731D7A8B698B842F90E09C8B8B8BE98D05
:102C7000FA8DA081B18140FF82C0F1E0BF126FC028
:102C8000AF126DC01C96ED91FC912F813885A40187
:102C90004C0D5D1D69897A89898D9A8D1995EB890D
:102CA000FC89F595E7954E2F5FEFC51AD50A6D8122
:102CB0007E818D899E89680F791F7E836D8398E060
:102CC000C916D10481F6AFEF2A1A3A0AEB81FC81CA
:102CD000E40DF51DFC83EB83F5E02F16310409F0BC
:102CE000B3CF2F81388526153705B9F0A98DBA8D58
:102CF000ED91FC91B1E0BB1257C0AB1255C0698198
:102D00007A816B5F7F4F0088F189E02D830128E095
:102D100030E0A401898D9A8D1995A98DBA8DED9118
:102D2000FC9111970688F789E02DCD016A960FB6C0
:102D3000F894DEBF0FBECDBFDF91CF911F910F91F1
:102D4000FF90EF90DF90CF90BF90AF909F908F90CB
:102D50007F906F905F904F903F902F9019941E96A8
:102D6000ED91FC91EF80F88409851A8592014D81DF
:102D70005E816B817C81898D9A8D199590CF2F8191
:102D800038852615370509F48ACF31E0B31207C01C
:102D9000A31205C01C96ED91FC91930178CF1E966D
:102DA000ED91FC917301E0CF6B857C856419750909
:102DB0000684F785E02D73010F8518899201A4011F
:102DC000898D9A8D1995A9CFF901349694913297EE
:102DD00045915491D91AB7E0DB9E400D511D112445
:102DE000F901259134913C8B2B8BFA01259034907D
:102DF000FA013296749031963491398B3296649000
:102E00003196449041E04C1518F04A1508F07FC007
:102E1000662D062C000C770B7C836B83842D042C91
:102E2000000C990B9E838D83A98DBA8DED91FC9139
:102E300011970284F385E02DCD011995512CD12CE9
:102E4000C12CEA2DF0E0FA87E9872B2D30E03C8792
:102E50002B87A401440D511D47FC5A95588F4F8B69
:102E600069817A81660D711D67FC7A957E876D8711
:102E70007989C71608F051CF2C2D30E04D815E8145
:102E8000420F531FA985BA854A9FC0014B9F900DE1
:102E90005A9F900D1124FC01E80DF91DF88BEF8766
:102EA000852D612C4F89588D420F531F5E8B4D8BA2
:102EB000671408F050C044244394480E877041F4CE
:102EC000C1010196EB89FC89E20DF31DD4901C0130
:102ED000D7FE19C0A98DBA8DED91FC91662D70E0D9
:102EE000B1E0BB1219C0AB1217C02D853E85620F31
:102EF000731F0484F585E02D2F8138854D895E8907
:102F0000898D9A8D1995DD0C6394842DD1CF1E8205
:102F10001D821C821B8288CF4B815C81640F751FD0
:102F2000AB85BC856A9FC0016B9F900D7A9F900D09
:102F3000112469817A81680F791F0684F785E02D55
:102F4000EF80F88409851A859D014F855889898D00
:102F50009A8D1995D8CF570CC3948ACF6A960FB61D
:102F6000F894DEBF0FBECDBFDF91CF911F910F91BF
:102F7000FF90EF90DF90CF90BF90AF909F908F9099
:102F80007F906F905F904F903F902F9008958F9219
:102F90009F92AF92CF92EF92FF920F931F93CF9396
:102FA000DF93EC01262F898D9A8D009709F050C090
:102FB0006A30D1F41D861C868D8948E0849F90017B
:102FC00011248E859F85820F931F9F878E8781E0B6
:102FD00090E0DF91CF911F910F91FF90EF90CF90F4
:102FE000AF909F908F9008956D3089F3CC88AD8815
:102FF0008F898823C1F08C859D8536E0C39E800D26
:10300000911D1124488559854817590764F44E8548
:103010005F851D861C8638E0A39EC0011124840FA5
:10302000951F9F878E87EA88FB88088919894E85B6
:103030005F856C857D85CE0185DD2C898C859D85A0
:1030400046E0249F800D911D11249D878C87BFCF62
:103050006A3069F41D861C86FC013696E4912D8940
:103060008E859F85E29F800D911D1124AECF6D301E
:1030700009F4ADCFFC0134963491631708F4A7CF5F
:103080003196E491E61708F4A2CFFC0132968590C0
:103090009490462F431B342F47E0349F800C911CA3
:1030A0001124F401329634913196E4913323A1F145
:1030B000EE2391F1CC88F4013596E491AD884F89E7
:1030C000442301F10E2E000CFF0BE30FF11DCE9EE9
:1030D000A001CF9E500D11246C857D85460F571F92
:1030E00068857985641775076CF44E855F851D8644
:1030F0001C86FC013696E491AE9E400D511D1124B4
:103100005F874E87EA88FB88088919894E855F8525
:103110006C857D85CE0116DDF4013496E4912C8911
:103120008C859D85E29F800D911D11248ECF6F921D
:103130007F928F929F92AF92BF92CF92DF92EF9247
:10314000FF920F931F93CF93DF93EC016B015A0112
:1031500039014801E881F9810284F385E02D199550
:10316000E881F9810288F389E02D87019301A501A7
:10317000B601CE011995A501480D591D41505109BF
:10318000E881F9810288F389E02D9301B601CE012F
:103190001995E881F9810088F189E02D9401A50154
:1031A000B601CE011995C60CD71CB6016150710944
:1031B000E881F9810088F189E02D9401A501CE0113
:1031C0001995E881F9810688F789E02DCE01DF9114
:1031D000CF911F910F91FF90EF90DF90CF90BF9014
:1031E000AF909F908F907F906F9019946F927F9285
:1031F0008F929F92AF92BF92CF92DF92EF92FF9207
:103200000F931F93CF93DF935C01EB016A01490198
:1032100038018701DC01ED91FC916217730719F504
:10322000641675062CF0962D872D3A01C92ED82EDE
:103230009601261937092F5F3F4F048CF58DE02D3D
:10324000A301BE01C5011995DF91CF911F910F9187
:10325000FF90EF90DF90CF90BF90AF909F908F90B6
:103260007F906F9008954615570591F426173707FC
:1032700024F0892D4B01C22FD82F9E01281939091E
:103280002F5F3F4F068CF78DE02DA601B401DACFFA
:103290000284F385E02D1995D501ED91FC91048808
:1032A000F589E02D83019401A601BE01C5011995A0
:1032B000D501ED91FC910688F789E02DC501DF91DC
:1032C000CF911F910F91FF90EF90DF90CF90BF9023
:1032D000AF909F908F907F906F901994EF92FF9294
:1032E0000F931F93DC011A960D911C911B97189652
:1032F0002D913C911997ED91FC9100A0F1A1E02D49
:103300007B0150E040E070E060E019951F910F9163
:10331000FF90EF9008954F925F926F927F928F92FD
:103320009F92AF92BF92CF92DF92EF92FF920F9354
:103330001F93CF93DF936C012B015A013901480190
:10334000DC01ED91FC910284F385E02D1995E201F9
:10335000640C751CD601ED91FC91C615D7055CF483
:103360000088F189E02D87019401A501BE01C60105
:1033700019952196EFCF0688F789E02DC601DF91D8
:10338000CF911F910F91FF90EF90DF90CF90BF9062
:10339000AF909F908F907F906F905F904F90199417
:1033A0008F929F92AF92BF92CF92DF92EF92FF9255
:1033B0000F931F93CF93DF93EC015B014A016901E7
:1033C000E881F9810284F385E02D199595012C0D92
:1033D0003D1D21503109E881F9810488F589E02DEE
:1033E00078018401A401B501CE011995E881F98124
:1033F0000688F789E02DCE01DF91CF911F910F91C3
:10340000FF90EF90DF90CF90BF90AF909F908F9004
:1034100019948F929F92AF92BF92CF92DF92EF92C8
:10342000FF920F931F93CF93DF93EC015B014A014F
:1034300069017801E881F9810284F385E02D19950D
:10344000C80CD91C860101501109E881F981048852
:10345000F589E02D9501A401B501CE011995E8810A
:10346000F9810688F789E02DCE01DF91CF911F9178
:103470000F91FF90EF90DF90CF90BF90AF909F9013
:103480008F901994EF92FF920F931F93DC01ED91AF
:10349000FC9100A0F1A1E02D19951F910F91FF90D3
:1034A000EF9008950F931F93DC01ED91FC91068C32
:1034B000F78DE02D19951F910F9108950F931F938C
:1034C000DC01ED91FC91048CF58DE02D19951F9197
:1034D0000F910895DC01ED91FC910084F185E02DC0
:1034E00019943F924F925F926F927F928F929F9228
:1034F000AF92BF92CF92DF92EF92FF920F931F9302
:10350000CF93DF935C017B014A016901390187E0B8
:10351000680E711C93E0759467949A95E1F72B01FE
:10352000400E511E10E000E0312CD0E0C0E0CE0192
:1035300087709927330C892B59F4FE0183E0F595A8
:10354000E7958A95E1F7E00FF11FE80DF91D34903A
:1035500037FE09C021E030E0A701B5016C0F7D1FE7
:1035600082EF9EE0B7DF2196CC16DD0601F78FEFE4
:10357000E81AF80A060D171DE414F504B1F6DF91F8
:10358000CF911F910F91FF90EF90DF90CF90BF9060
:10359000AF909F908F907F906F905F904F903F90F3
:1035A00008952F923F924F925F926F927F928F92E7
:1035B0009F92AF92BF92CF92DF92EF92FF920F93C2
:1035C0001F93CF93DF9300D000D0CDB7DEB73C017F
:1035D0006A013E832D83FC82EB825801A41AB50A4E
:1035E000B7FE03C0B194A194B1088D809E80861A65
:1035F000970A97FE03C09194819491088A149B04C2
:103600005CF0902F812F0D811E819D838E839C2DD8
:103610008D2D6B01692F782F0C151D055CF09D8198
:103620008E817E836D83692F782F902F812F860165
:10363000C92ED82E1601201A310A2B012D813E8168
:10364000421A530A57FE03C0519441945108710124
:1036500037FE03C03FEFE31AF30AF594E7948D8138
:103660009E81861797075CF5A1E0B0E0BA83A98335
:10367000C016D1064CF1D301ED91FC910484F5857F
:10368000E02D2B813C81A8016D817E818A149B04F1
:103690001CF04D815E81B801C3011995E418F5084D
:1036A000F7FE0AC02D813E8189819A81280F391F3A
:1036B0003E832D83E20CF31C0F5F1F4FD9CF2FEFFA
:1036C0003FEF3A832983D4CF26960FB6F894DEBF16
:1036D0000FBECDBFDF91CF911F910F91FF90EF9063
:1036E000DF90CF90BF90AF909F908F907F906F9022
:1036F0005F904F903F902F900895ED9880E197E074
:10370000909304028093030281E0809314028093DB
:103710006B0A1092610A10925F0A1092600A10926E
:103720005E0A10925D0A60E082E10E94F6085F98EE
:103730000895DC0114964D915C91159730E020E0DE
:1037400090E080E02417350799F0ED91FC911197F6
:10375000309759F410925A03EAE5F3E060816F3232
:1037600009F401962F5F3F4FEDCFE20FF31FF6CF25
:103770002130310511F490E080E0089504960C9416
:10378000991290E080E008952091F80E3091F90EA2
:10379000C901079697FD079623E0959587952A9589
:1037A000E1F72091F60E3091F70E829FA001839FE2
:1037B000500D929F500D112470E060E08091110F28
:1037C0009091120F0C940840DFDFE2EFFEE081E001
:1037D00090E0938B828B918B808B82E0848B858BA6
:1037E0008AE290E0958784871786168680915D0A25
:1037F00090915E0A26E0289FB001299F700D112448
:103800006853714FCF010E9414070C941E0FFC01E6
:10381000808181110FC080E2DF01982F1D929A955F
:10382000E9F777836683DB0115969C91903129F047
:10383000903211F080E0089580E4808381E08283FB
:103840000895CF92DF92EF92FF920F931F93CF9341
:10385000DF93FC0180E2DF011D928A95E9F7EB011D
:10386000AE81BF81B783A68355834483CC8CDD8C26
:10387000EE8CFF8CC086D186E286F3864F7055278A
:10388000ED01A79695E0440F551F9A95E1F7BE010B
:10389000640F751FEB018B8583FD52C0CD01840F32
:1038A000951FEC018AA987718083EB019B85987134
:1038B00011F488608083038381E0213009F482E081
:1038C0008283828181FF03C080818171C9F59396D3
:1038D0000D911D912D913C919697048B158B268B04
:1038E000378BA40FB51FDB964D915C91DC9770E090
:1038F00060E0BA0155274427ED01CF5BDF4F088117
:10390000198130E020E0402B512B622B732B448F28
:10391000558F668F778FAD5BBF4F8D919D910D90C9
:10392000BC91A02D808F918FA28FB38F81E0DF910A
:10393000CF911F910F91FF90EF90DF90CF9008955E
:10394000108280E0F4CF8F929F92AF92BF92DF926D
:10395000EF92FF920F931F93CF93DF93EC017B01C4
:103960002881222309F4BBC08A8180FFB8C08888DF
:103970009988AA88BB8823FF21C0888D998DAA8D3C
:10398000BB8D88199909AA09BB0982309105A10547
:10399000B10518F5009709F530E020E0A901481BB2
:1039A000590BCA01DF91CF911F910F91FF90EF90BA
:1039B000DF90BF90AF909F908F90089525FF0DC02E
:1039C000EE81FF818681978135E0880F991F3A95B6
:1039D000E1F78815990509F488C084011170EE811A
:1039E000FF81B501A40189E07695679557954795C4
:1039F0008A95D1F725FF27C0848D958DA68DB78D2B
:103A0000480F591F6A1F7B1F8E819F8120E080967F
:103A10000E943C11009709F462C0800F911FFC01C5
:103A20008081F701808388899989AA89BB89019659
:103A3000A11DB11D888B998BAA8BBB8B21E030E037
:103A400090E080E0ABCFD380D4220115110581F442
:103A5000D1100EC089288A288B2881F526FF29C01D
:103A6000848D958DA68DB78D8C879D87AE87BF87FA
:103A7000EE81FF814C855D856E857F8542505109C1
:103A800061097109848104C0440F551F661F771FA7
:103A90008A95D2F780899189A289B389840F951F6D
:103AA000A61FB71FAC01BD014D0D511D611D711D3C
:103AB000ABCF8C8D9D8DAE8DBF8DD6CF4C855D856A
:103AC0006E857F859E01245F3F4FCF010E945E136C
:103AD00087FD05C08111CCCF8881807749F4898129
:103AE000826089838FEF9FEF5DCF30E020E0A8CF29
:103AF00021E030E081E090E051CFEF92FF920F9310
:103B00001F93CF93DF931F92CDB7DEB77C01962F23
:103B1000F70140895189628973898A019B0185E097
:103B200036952795179507958A95D1F70F7011F05F
:103B3000911128C0BE016F5F7F4FC70104DF813044
:103B400051F090E080E00F90DF91CF911F910F91A5
:103B5000FF90EF900895F70180899189A289B38938
:103B60004F96A11DB11D808B918BA28BB38BF7015A
:103B7000868197818796F0E20F9F90011124820F32
:103B8000931FE1CF405E5F4F6F4F7F4F408B518B54
:103B9000628B738BECCF2F923F924F925F926F921A
:103BA0007F928F929F92AF92BF92CF92DF92EF92CD
:103BB000FF920F931F93CF93DF93CDB7DEB7A097FC
:103BC0000FB6F894DEBF0FBECDBF8C015B0119822A
:103BD0001A828091520C882309F41BC16D30710543
:103BE00008F417C19091550C911175C0807609F1B8
:103BF0008FE2D8018C9311961C92FF24F3948F2DA1
:103C0000A0960FB6F894DEBF0FBECDBFDF91CF9167
:103C10001F910F91FF90EF90DF90CF90BF90AF90EA
:103C20009F908F907F906F905F904F903F902F90DC
:103C300008954091660C5091670C6091680C7091EA
:103C4000690C8091580C9091590C20E080960E944C
:103C50003C11009709F4DFC0E091560CF091570C2D
:103C6000EF70FF2725E0EE0FFF1F2A95E1F77F0198
:103C7000E80EF91EE114F10409F4CDC0D70148E0C3
:103C800090E080E05EE22D912032E9F0883039F456
:103C90009801290F311DF90150839F5F40E19D017B
:103CA00021503109F90120813FEB320F3A3128F4DC
:103CB000F7013485342309F0205EB801690F711DC6
:103CC000FB0120839F5F8F5F8B30E9F6090F111D89
:103CD000D8011C9292CF80915A0C90915B0CA091CC
:103CE0005C0CB0915D0C6091580C7091590CFE0108
:103CF00031964F010097A105B10509F071C0CF01C0
:103D000086DD882309F485C066246394712CD12C48
:103D1000C12C28014A0C5B1CF1E04F1A510880911C
:103D2000550C861508F475C04091560C5091570CEF
:103D30004619570970E060E085E0440F551F661F83
:103D4000771F8A95D1F7C4010E94DD13F82E8823CE
:103D500009F45FC060E0C401D0DEFC01892B09F4E6
:103D600058C083858F3009F054C080818F716812EC
:103D700050C0A8014C0D5D1D1F01960160E0D101EE
:103D80006530E8F511968D919C91009799F02A1570
:103D90003B05D0F48F37910510F08FE390E02F5F53
:103DA0003F4FDA018D93AD016F5FB2E02B0E311CF6
:103DB0006D3029F72A153B0538F4808186FF04C051
:103DC000200F311FD9011C92D2011C92BDE0CB0EF5
:103DD000D11C2FEF621A720A808186FFA0CF0FCF0D
:103DE0002CE111922A95E9F720E1298321E02B8328
:103DF00078876F838D8F9E8FAF8FB8A385CF6B3001
:103E000020F414968D919C91C0CF16968D919C9123
:103E1000BCCFD8011C92F12CF2CEFF920F931F93CE
:103E2000CF93DF93EC018091520C882339F080E02E
:103E3000DF91CF911F910F91FF9008959091990E6E
:103E40009077A9F3F62E209709F445C0AE014150B2
:103E5000510970E060E085E0440F551F661F771F31
:103E60008A95D1F789E99EE00E94DD138823F9F253
:103E700060E089E99EE041DEFC01892BC1F2838587
:103E80008F3081F580818F71813061F515850C2F20
:103E9000C531D10508F004E160E089E99EE02DDE3E
:103EA000009729F2FC012081253E09F4C0CF22238E
:103EB00009F4BDCF2E3209F4BACF002321F00E94BD
:103EC000E4098113B4CF2F2DAE0169E97EE082E5CC
:103ED0009CE0B7DCADCF40E050E0BA0189E99EE05C
:103EE0000E94DD1300E010E0D7CFCF92DF92EF9277
:103EF000FF920F93CF9300E0C0E0C090A90ED09046
:103F0000AA0EE090AB0EF090AC0E60E089E99EE066
:103F1000F4DD009789F1FC012081222369F12E3222
:103F200009F1253EF9F0338533FD1EC0002321F051
:103F30000E94E4098C1320C0B701A60185E07695A4
:103F40006795579547958A95D1F720E069E97EE016
:103F500082E59CE076DCCF910F91FF90EF90DF90AF
:103F6000CF90089500E0C9CF3F30E1F726FFC5CFDD
:103F7000022F0F71C585C1CF80E0EDCF8F929F9248
:103F8000AF92BF92CF92DF92EF92FF920F931F9367
:103F9000CF93DF931F92CDB7DEB76B017C018A010F
:103FA00080913E0A8111BBC04B01570180E4C816C5
:103FB000D104E104F10408F0A3C0E0E48E0E911CEA
:103FC000A11CB11C88E480935F0585E480936005A3
:103FD00061E08DE00E94F608E0E8CE16D104E1042D
:103FE000F10428F0F0E8CF1AD108E108F108E4E57F
:103FF000F5E0119285E0EE35F807D9F786E1809378
:104000005E0510926105C09262058FEF8093630593
:10401000C094C09264051092650580E8809366059F
:10402000EFE5F5E027E635E080E09191890F2E1766
:104030003F07D9F7809580936705E8E6F5E0119290
:1040400089E0E837F807D9F786E18093720560E0E8
:10405000C801E3DEB501A4018AE0440F551F661FC5
:10406000771F8A95D1F782E59CE00E94DD1393E7E4
:10407000E92E95E0F92E23E7C22E29E0D22E10E09A
:1040800000E0BE016F5F7F4F82E59CE05CDC019742
:1040900009F04EC08981F70181937F01212F30E023
:1040A000180F820F932F911D8F3F910511F00CF087
:1040B0000F5FCE14DF0429F7EBE5F3E0119285E002
:1040C000EF34F807D9F786E180936F03009370030C
:1040D0001093710382E59CE00E94E61260E08DE09F
:1040E0000E94F6080F90DF91CF911F910F91FF90E2
:1040F000EF90DF90CF90BF90AF909F908F900895FA
:10410000F0E48F1A9108A108B10880E488169104A0
:10411000A104B10408F456CF4B01570153CF87E4F3
:1041200080935F0587E5809360054B01570150CF71
:104130008FEF9FEFB0CF2F923F924F925F926F928F
:104140007F928F929F92AF92BF92CF92DF92EF9227
:10415000FF920F931F93CF93DF9300D000D000D036
:104160001F92CDB7DEB79E838D833B015A8349836F
:10417000DC018C9183FFEBC012968C9181FFE7C02C
:1041800083FDD8C0E981FA81AF0170E060E0ED8184
:10419000FE8180899189A289B38980959095A095A7
:1041A000B09584179507A607B70708F4D0C0C98053
:1041B000DA8022242A94322C21013C96FC83EB8362
:1041C000ED81FE814089518962897389C114D104CE
:1041D00009F47CC1868197818A019B0169E036954B
:1041E0002795179507956A95D1F7DC011396EC9101
:1041F0000E237A01B1E0FB2201111FC0ED81FE8187
:104200004485558566857785E114F10409F097C1E9
:10421000411551056105710509F4A4C02B813C814C
:104220000E945E1387FD93C0811107C08D819E811E
:104230000E949D14882309F48AC0AD81BE81169620
:10424000ED91FC9117971C964D915D916D917C912C
:104250001F974250510961097109848104C0440FBC
:10426000551F661F771F8A95D2F780899189A28989
:10427000B389840F951FA61FB71FAC01BD01400F66
:10428000511D611D711DE114F10429F4C114B2E046
:10429000DB0608F088C080E092E08E199F09860155
:1042A0008C159D0508F48C01E114F104A1F4AD8195
:1042B000BE8150968D909D90AD90BC90539758962E
:1042C0008D919D910D90BC91A02D25E088169906A9
:1042D000AA06BB0608F421E0CF0180960E943C119B
:1042E0000097A9F1A801B3018E0D9F1D0E94FF3F09
:1042F000E00EF11EE114B2E0FB0649F4ED81FE810F
:104300008681978180960E94D110882301F1ED81EA
:10431000FE8180899189A289B389800F911FA11D97
:10432000B11D808B918BA28BB38B600E711EC01A56
:10433000D10A46CFAD81BE8158964D915D916D9168
:104340007C915B97CD010E94DD1381111BCFAD8164
:10435000BE8111968C911197816011968C938FEF8D
:104360009FEFCDC0ED81FE81848D958DA68DB78D9B
:104370000097A105B10581F4CF010E949D14882307
:1043800031F3ED81FE8184859585A685B785848F7F
:10439000958FA68FB78F51CFED81FE81848795874A
:1043A000A687B7874ACF83A194A1A5A1B6A1C114BE
:1043B00024E0D20608F470C09601232F33272695F7
:1043C0008280801A912C2815390508F44901481774
:1043D00059076A077B0770F0880D991DA11DB11D53
:1043E000481759076A077B0728F410A223A234A2B2
:1043F00045A256A2AD81BE811696ED91FC91E0805A
:10440000F180F7018581833039F099E0440F551F21
:10441000661F771F9A95D1F79A01AB0169E1C70131
:104420000E945910882351F083E3D7018C93C70170
:104430000E94880DC7010E94880D89CF530110E0AA
:1044400000E080ED97E008151905A1F00E94CC0965
:10445000811104C08BE5F7018083E9CFA5016CEFE2
:10446000C7010E94D90D882311F30F5F1F4FFEEF84
:10447000BF1AE7CF0E94CC09882351F0102F0027E4
:10448000110F8DEF0E94C009C7010E94880D3FCF18
:1044900086E5D7018C93CECF481759076A077B076B
:1044A00029F410A223A234A245A256A2AD81BE8156
:1044B0001696ED91FC919301808191810E9492105A
:1044C000882309F444CF00E012E021CFED81FE8182
:1044D000808D918DA28DB38D84179507A607B707A0
:1044E00038F48281408F518F628F738F8460828312
:1044F000ED81FE81828187FD1BC089819A812A9688
:104500000FB6F894DEBF0FBECDBFDF91CF911F91E4
:104510000F91FF90EF90DF90CF90BF90AF909F9062
:104520008F907F906F905F904F903F902F90089565
:104530008D819E810E9499128111DFCF08CFFC01ED
:104540004250510961097109848104C0440F551F0B
:10455000661F771F8A95D2F780899189A289B389CE
:10456000480F591F6A1F7B1F96CE0496E4CDCF9348
:10457000DF931F92CDB7DEB7698341E050E0BE0103
:104580006F5F7F4F0496D7DD0F90DF91CF91089535
:104590002F923F924F925F926F927F928F929F9253
:1045A000AF92BF92CF92DF92EF92FF920F931F9341
:1045B000CF93DF9300D0CDB7DEB76C017B836A83E6
:1045C000FA01672BB9F480E00F900F900F90DF9104
:1045D000CF911F910F91FF90EF90DF90CF90BF9000
:1045E000AF909F908F907F906F905F904F903F9093
:1045F0002F900895AA81BB818C91807721F3D601F9
:104600008C918111E0CFA180B2808081837011E014
:1046100041F0C5010C966DE070E00E94A73D11E0ED
:10462000160F7F0140E050E0BA018A819B810E9411
:10463000DD131982212C312C00E04701B6E08B0EEE
:10464000911CEA81FB81408851886288738861E00F
:10465000CF0153DA009709F4B6CFDC012C91253E47
:1046600009F491C0222309F499C0311668F12E3261
:1046700009F492C0FC0133853F3009F05CC00111A0
:1046800025C026FFDECF022F0F71F585F983202E7E
:10469000E22DE150FF0BAF01FDE0F49F9001F59F8B
:1046A000300D11242A153B0508F076C0FC01712C51
:1046B00064E0671598F081819281A216B306B9F47F
:1046C000892B09F069C0BDCF312CD1CF2A9422119A
:1046D00063C02585B9812B17D9F25EC08AE08715A2
:1046E00018F084819581E9CF86819781E6CF8F3F4D
:1046F000910511F008F050C04FEB480F4A3108F413
:10470000805EB9016F5F7F4FD70113964D915C9129
:10471000240F351FD9019C912FEB290F2A3108F462
:10472000905E981339C073943296BDE07B1609F4FD
:1047300088CF9B01BDCF33FD2FC00023B9F0E1E04E
:104740002E1241CF0E94E409F981F8133CCFB30146
:10475000A20185E076956795579547958A95D1F79B
:1047600020E06A817B81C6016CD82ECF4BE050E0FF
:10477000B4010E94F23F892B09F063CFD7018C91DD
:1047800080FD5FCFE4CF311638F43394222309F44F
:104790001ACF253E09F06BCF00E053CF3116A8F3B6
:1047A00012CF4F925F926F927F928F929F92AF92B1
:1047B000BF92CF92DF92EF92FF920F931F93CF930E
:1047C000DF93CDB7DEB7C155D1090FB6F894DEBF80
:1047D0000FBECDBF8C0119A21AA2DC019C919F32A1
:1047E00071F511968C9181112AC089E99EE00E9491
:1047F000E61262E77CE089E99EE009D8811102C0F7
:1048000080E005C09091990E907781E0C9F3CF5A6E
:10481000DF4F0FB6F894DEBF0FBECDBFDF91CF9153
:104820001F910F91FF90EF90DF90CF90BF90AF90CE
:104830009F908F907F906F905F904F900895198216
:104840001A828091990E8077D9F269E97EE09F32D1
:1048500049F5F8018F0181918F32E1F360919F0E4C
:104860007091A00E811114C0CE0181960E94071C88
:10487000882331F299A1907709F4C2CF90E2FE012A
:10488000B196A9E9BEE001900D929A95E1F7BFCFEC
:10489000CE0101960E94071CBE016F5F7F4F8823E7
:1048A00009F4AECF81E4E82EF12CEC0EFD1EB1E14F
:1048B000EB0EF11C90E2D92EF8019F012F5F3F4FC4
:1048C0008081803209F499C02696FFAFEEAF26971B
:1048D0009F01A9014E1B5F0B8901D9018D919D019B
:1048E000882371F08F3209F08AC0CF01840F951FA1
:1048F0008C01DC012D91CD012032D1F32F32C1F397
:10490000DA01AE0FBF1F5D01AE1ABF0AEA17FB073F
:1049100009F48FC08E918E32B1F38032A1F3BFEFD4
:10492000AB16B10411F00CF06BCF2496BFAEAEAE57
:104930002497A1E4B0E0AC0FBD1F1696DD92AE1532
:10494000BF05E1F7DF019D012E1B3F0B8D918E32DC
:10495000D1F38032C1F3CC24C3942115310509F081
:10496000C12CA50141505109DF01AA0DBB1D4F3FCC
:10497000540709F061C027969FAD2797712CA7E0D7
:104980008A2E912C612CB8E05B2E2A153B050CF089
:1049900088C0DF01A20FB31F8C91803209F47FC061
:1049A0008E3221F42417350709F079C0A82F8232FE
:1049B000A1F08C3791F0B6EDB80FB63010F48D320F
:1049C00061F4B6ECB80FB63040F0B5EAB80FB330CA
:1049D00020F0BFEDB80FBE35B0F12417350709F050
:1049E000A3C08AE0881609F4ACC09A01AAE08A2E16
:1049F000B8E09B2E80E1582E43C0F9015ECF8C3584
:104A000009F4FECE982F977F923209F4F9CE8A33BB
:104A100009F4F6CE982F9F7B9C3309F4F1CE92ECEB
:104A2000980F923008F4ECCE80528F3508F451CFB5
:104A3000E7CEB12CA12C79CF8E918E3209F49BCF89
:104A40004150510994CF2417350759F2891408F4BD
:104A500071C0BFE9B80FBA31B0F480527528442450
:104A60004394490CA1E4B0E0AC0FBD1FA90DB11DEA
:104A700016968C93A6E0942CA41510F0942D942CEB
:104A80002F5F3F4F82CFA154AA3148F76528E7CF67
:104A90009A01AAE08A2EB8E09B2E80E1582EC12C04
:104AA000EFCF27969FAF279728968FAD2897803214
:104AB00009F4A6CECC2029F1672011F082E0782EEF
:104AC00022967FAE2297F8018081AE014F5B5F4F47
:104AD000882331F1CE0181965BDD882309F490CEE5
:104AE00080E2FE01B196DE01119601900D928A9549
:104AF000E1F7CE0181960E94E612BE016F5F7F4F03
:104B0000DBCE81E022968FAF2297E1E4F0E0EC0F5C
:104B1000FD1FE90FF11D8EE7868381E38783D3CFE5
:104B2000CE01819635DDA4CEC12C8FE5AFE5891489
:104B300008F0A9CFAAE08A1621F0421753070CF01B
:104B4000A7CF27969FAF2797C12CAECFFB0101902F
:104B50000020E9F73197AF01461B570BDC01ED91BF
:104B6000FC910280F381E02D19940F931F93CF9352
:104B7000DF93EC010E9414078C016BE772E0CE0119
:104B8000E5DF800F911FDF91CF911F910F91089565
:104B90008F929F92AF92BF92EF92FF920F931F93CB
:104BA000CF93DF93CDB7DEB7A1970FB6F894DEBFF2
:104BB0000FBECDBF7C01FA01CB0119A2223008F44F
:104BC0002AE08E010F5D1F4F822E912CB12CA12C5B
:104BD000BF01A50194010E94BB3DF901CA016A30E1
:104BE00004F5605DD8016E938D01232B242B252BBA
:104BF00079F790E080E0109719F0BD01C701A6DFBA
:104C0000A1960FB6F894DEBF0FBECDBFDF91CF9156
:104C10001F910F91FF90EF90BF90AF909F908F905A
:104C20000895695CDFCFCF92DF92EF92FF920F93EE
:104C30001F93CF93DF936B01770FEE08FF08F7FE0A
:104C40001EC0EC01E881F9810190F081E02D6DE258
:104C500019958C0144275527BA014C195D096E0935
:104C60007F092AE0CE0194DF800F911FDF91CF9161
:104C70001F910F91FF90EF90DF90CF9008952AE061
:104C8000B701A601DF91CF911F910F91FF90EF9097
:104C9000DF90CF907DCF0F931F93CF93DF93EC01E5
:104CA00055DF8C016BE772E0CE0150DF800F911F62
:104CB000DF91CF911F910F9108958F929F92AF92A4
:104CC000BF92CF92DF92EF92FF920F931F93CF93F9
:104CD000DF930E94D308019709F084C084E090E03C
:104CE00090935E0A80935D0A0E94E41B0E94B409BF
:104CF0006B017C01C092320AD092330AE092340AEE
:104D0000F092350A9CED892E912CA12CB12C0E9499
:104D1000B409C0911502D09116026C197D098E0953
:104D20009F09A50194010E94BB3DCE01821B930BFC
:104D300000911702109118020130110509F04AC0C4
:104D4000803891050CF048C00E94B4096C197D09A7
:104D50008E099F092CED30E040E050E00E94BB3D01
:104D6000C21BD30BD0931602C0931502013011055C
:104D700009F07DC0C038D105A4F480E890E090939C
:104D80001602809315021092610A10925E0A109228
:104D90005D0A0E94E41B8FB7F8945F988FBF0000F4
:104DA00000004091660A5091670A60911502709167
:104DB0001602072E000C880B990BDF91CF911F91E3
:104DC0000F91FF90EF90DF90CF90BF90AF909F90AA
:104DD0008F90D4C897FDB8CF0E94D308019709F4EB
:104DE00096CFB2CF82E090E090935E0A80935D0A06
:104DF0000E94E41B0E94B4096B017C01C092320A3C
:104E0000D092330AE092340AF092350A8CE2882E6E
:104E100099249394A12CB12C0E94B409C09115023D
:104E2000D09116026C197D098E099F09A501940184
:104E30000E94BB3DCE01821B930B00911702109183
:104E400018020130110571F4803891056CF40E944C
:104E5000B4096C197D098E099F092CE231E040E00C
:104E600050E07CCF97FDF3CF359BD6CFF0CFD7FF67
:104E700098CF109216021092150285CFCF92DF9232
:104E8000EF92FF920F931F93CF93DF93E8E6F5E045
:104E900080E028E030E049B1447099B1947049173E
:104EA000E1F34AEA4A95F1F700C049B1880F44702E
:104EB0009413816080832150310969F7319699E01C
:104EC000E237F90731F78091660A9091670AC0903E
:104ED0001502D09016020D2C000CEE08FF08209150
:104EE0003E0A21110BC020E4C216D104E104F104F2
:104EF000A8F540E4C40ED11CE11CF11C2FB7F894B6
:104F00002F9A2FBF61E00E940D1FB701A6018AE012
:104F1000440F551F661F771F8A95D1F782E59CE0E5
:104F20000E94DD13CDE6D5E00DE619E069918EE42F
:104F30009CE01DDB0C171D07C9F782E59CE00E9471
:104F4000E6128FB7F8942F988FBFDF91CF911F9102
:104F50000F91FF90EF90DF90CF900895B701A601D9
:104F600040545109610971094034510561057105C9
:104F700028F66A017B01C2CF0E94C41B81E090E049
:104F80009093050F8093040F9093030F8093020F6B
:104F900082E08093060F8093070F8AE290E090935F
:104FA000FF0E8093FE0E1092010F1092000F809161
:104FB0005D0A90915E0A26E0289FB001299F700D3E
:104FC00011246853714F82EF9EE00E941407609194
:104FD00015027091160282EF9EE025DE0E941E0FE0
:104FE000E4E5F5E041E027E030E080910002982F11
:104FF0009427909300028111B2C05B9885EA8A954C
:10500000F1F70000868190E0022E02C09595879509
:105010000A94E2F780FF09C080910002982F94273C
:105020009093000281119DC05B9880ED8A95F1F705
:1050300021503109D0F6319685E0E236F80799F62D
:105040009091000281E089278093000291118BC02A
:105050005B988091140281116EC062E370E080E081
:1050600090E00E948409E8E6F5E064E779E041E039
:1050700027E030E080910002982F9427909300025F
:10508000811173C05B9885EA8A95F1F700008081F1
:1050900090E0022E02C0959587950A94E2F780FF72
:1050A00009C080910002982F9427909300028111EB
:1050B0005EC05B9880ED8A95F1F721503109D0F6FA
:1050C00031966E177F07A1F662E070E080E090E015
:1050D0000E948409EBE5F3E041E027E030E08091B5
:1050E0000002982F942790930002811142C05B9890
:1050F00085EA8A95F1F70000808190E0022E02C0D7
:10510000959587950A94E2F780FF09C08091000287
:10511000982F94279093000281112DC05B9880ED09
:105120008A95F1F721503109D0F6319685E0ED31BD
:10513000F80799F65B9860911502709116026F5FFF
:105140007F4F70931602609315024091660A50914A
:10515000670A072E000C880B990B0C94BE1F5B9AF4
:105160004DCF5B9A62CF5B9A74CF5B9A8CCF5B9A80
:10517000A1CF5B9ABDCF5B9AD2CF0E94E63FCF937F
:10518000DF93FC01C081D181209761F08991882350
:1051900049F0082E000C990B0E94EA3FFE0131975E
:1051A0008083F4CFDF91CF9108950F931F93CF9316
:1051B000DF938C01EB01FC01808191810097E1F08C
:1051C0006881798161157105A9F0428153812C8133
:1051D0003D814217530770F00E9418408C819D81D9
:1051E000F801958384831D821C82DF91CF911F91EA
:1051F0000F9108950E94813E88819981F8019183E1
:1052000080838A819B81938382838C819D81958316
:105210008483198218821B821A82E5CFCF93DF9391
:10522000EC0188819981009711F00E94813E1982DA
:1052300018821D821C821B821A82DF91CF910895F1
:10524000FC0180819181009711F00C94813E0895BA
:105250000F931F93CF93DF93EC018881998100977F
:1052600059F02A813B812617370730F081E0DF9122
:10527000CF911F910F9108958B016F5F7F4F0E9417
:105280000A3F009759F0998388831B830A832C81F6
:105290003D81232B59F7FC011082E8CF80E0E7CF56
:1052A000EF92FF920F931F93CF93DF9361157105D8
:1052B00041F480E0DF91CF911F910F91FF90EF902B
:1052C000089541155105A9F07B01EC010C811D8168
:1052D000040F151FB801BCDF882359F328813981D9
:1052E0008C819D81B701820F931F0E9418401D83FE
:1052F0000C8381E0DFCFCF93DF93EC01FB0144818E
:10530000558160817181CCDF811102C0CE0186DFC1
:10531000CE01DF91CF910895EF92FF920F931F93EB
:10532000CF93DF93EC017B018A01BA0191DF8111F8
:105330000AC0CE0173DFCE01DF91CF911F910F9193
:10534000FF90EF9008951D830C83B70188819981A8
:105350000E941840F0CFFB0101900020E9F731973F
:10536000AF01461B570BD8CFCF93DF93EC01FB0166
:105370008617970741F0608171816115710539F0D9
:1053800044815581C9DFCE01DF91CF91089546DF79
:10539000FACF0F931F93CF93DF9300D000D0CDB7F8
:1053A000DEB71A8219821C821B821E821D8268E46B
:1053B0007CE0CE010196D8DFCE0101960E94991BB8
:1053C0008C01CE0101963CDF0130110589F482E0A9
:1053D00090E0909313028093120226960FB6F894F1
:1053E000DEBF0FBECDBFDF91CF911F910F9108950A
:1053F00081E090E00230110564F38091510A9091B0
:10540000520A039720F383E090E0E3CFFC0111827E
:1054100010821382128215821482FB0101900020F7
:10542000E9F73197AF01461B570B76CFAF92BF928A
:10543000CF92DF92EF92FF920F931F93CF93DF9360
:105440006C015B017A0189012417350720F48F2D47
:105450007901042F182F6DE772E0C601D7DFD5015F
:105460001496CD91DC91EC16FD06D8F40C171D07AF
:1054700008F4E801D501ED91FC911197EC0FFD1FA7
:10548000108110826D917C916E0D7F1DC60161159A
:10549000710599F060DFF50180819181C80FD91FF6
:1054A0001883C601DF91CF911F910F91FF90EF906C
:1054B000DF90CF90BF90AF900895B0DEECCFAF9269
:1054C000BF92CF92DF92FF920F931F93CF93DF9300
:1054D000CDB7DEB7C057D1090FB6F894DEBF0FBE07
:1054E000CDBF8C016B016DE772E0CE0185599F4FF6
:1054F0008DDFC6018E5B944F5C01FC0180816EE7FD
:1055000072E0882321F08130D1F462E872E0C801B2
:105510007DDFCE0185599F4F93DEC801C059DF4F13
:105520000FB6F894DEBF0FBECDBFDF91CF911F91B4
:105530000F91FF90DF90CF90BF90AF9008956DE7EF
:1055400072E08F3F21F3F12CCC0CDD1CC601885892
:10555000954F6C0160E0F601808191810E940D1FE2
:10556000811105C0F39482E59CE00E94E61263E697
:1055700070E0CE0101960E94CB1D811105C0F3940D
:1055800082E59CE00E94E612BE016F5F7F4FCE0174
:105590008B599F4F3BDFBE016B597F4FCE01855921
:1055A0009F4F03DECE018B599F4F4ADEFAE0FF1575
:1055B00008F041C067E872E0CE0185599F4FCBDE0D
:1055C000BE0165597F4F8BEA9BE0CFDA82E59CE014
:1055D0000E94E612F5018081823001F565E972E0F2
:1055E000CE018B599F4F12DFBE0165597F4FCE010F
:1055F0008B599F4F80DE6C0141E050E065E872E01E
:105600004FDE811102C0C60109DEB601CE01855907
:105610009F4FAADECE018B599F4F12DEF8011182F7
:1056200010821382128215821482BE0165597F4F47
:10563000C801BBDD6ECF82E59CE00E94E612F1104E
:1056400089CFC4CF0F931F93CF93DF9300D000D0A7
:10565000CDB7DEB70E94C41B01E010E01093050F28
:105660000093040F1093030F0093020F82E08093C6
:10567000060F8093070F1092FF0E1092FE0E1092ED
:10568000010F1092000F62EC7EE082EF9EE00E941C
:1056900014078AE290E09093FF0E8093FE0E109222
:1056A000010F1092000F80915D0A90915E0A26E032
:1056B000289FB001299F700D11246853714F82EF0C
:1056C0009EE00E94140781E08093060F8093070FED
:1056D0001092FF0E1092FE0E80E290E09093010F68
:1056E0008093000F609112027091130280913F0A23
:1056F0009091400A6817790719F51092030F1092DC
:10570000020F1093050F0093040FCE010196D7DE10
:10571000BE016F5F7F4F82EF9EE027DACE010196D8
:105720008FDD0E941E0F1092110226960FB6F8947C
:10573000DEBF0FBECDBFDF91CF911F910F910895B6
:105740001093050F0093040F1093030F0093020FA3
:10575000DCCF2F923F924F925F926F927F928F9207
:105760009F92AF92BF92CF92DF92EF92FF920F93F0
:105770001F93CF93DF93CDB7DEB7C751D1400FB69C
:10578000F894DEBF0FBECDBF6DE772E0CE018A5F39
:105790009E4F3CDE6DE772E0CE01845F9E4F36DEA9
:1057A0000E94C41B01E010E01093050F0093040F4A
:1057B0001093030F0093020F82E08093060F8093F3
:1057C000070F1092FF0E1092FE0E1092010F109212
:1057D000000F62EC7EE082EF9EE00E9414078AE2F6
:1057E00090E09093FF0E8093FE0E1092010F1092A6
:1057F000000F80915D0A90915E0A26E0289FB0011B
:10580000299F700D11246853714F82EF9EE00E9412
:10581000140781E08093060F8093070F1092FF0E0C
:105820001092FE0E80E290E09093010F8093000FA3
:105830001093050F0093040F1093030F0093020FB2
:1058400067E972E082EF9EE026DA0E941E0F109256
:10585000520A1092510AF2E46F2EFBE07F2EA8E765
:10586000AA2EAAE0BA2EF501D3012FEF8FEF9FEFFA
:105870003BE0E234F30721F02D9381939193F8CF2D
:105880006DE772E0CE018E5E9E4FC0DD1A821982F6
:105890001C821B821E821D8268E47CE0CE01019680
:1058A00063DDCE0101960E94991B8C01CE01019609
:1058B000C7DC0130110509F0ABC01093520A009308
:1058C000510A81E08093430B72E0272EEAE03E2EDE
:1058D0000091510A1091520A8091520C0436110520
:1058E00008F062C2811127C18091990E807709F476
:1058F00022C18091A90E9091AA0EA091AB0EB091F9
:10590000AC0E8F719927AA27BB27892B8A2B8B2B4B
:1059100009F011C10E94751F882309F40CC1809100
:10592000520C81FD70C06FEF70E0CE0101960E94B5
:10593000CB1DBE016F5F7F4FCE01939567DDBE012A
:105940007395CE018E5E9E4F30DCCE01939578DC50
:10595000CE5EDE4F88809980C251D140811491047F
:1059600059F0CA5EDE4FE880F980C651D14064012B
:10597000E114F10409F05DC0CE018E5E9E4FFFDBA5
:10598000CA5EDE4F28813981C651D1403327A90133
:1059900044505109BE016E5E7E4FCE01939546DDA7
:1059A000CE019395ECDB8091520C84FD86C0CC5FD8
:1059B000DE4F88819981C450D140892B09F169EA71
:1059C00072E0C050DF4F88819981C050D1400E9461
:1059D0000F40892BA9F40F5F1F4F1093520A0093B9
:1059E000510AF801EE0FFF1FE858F54F8091560C51
:1059F0009091570C918380830E5B144FF801308295
:105A0000CE0193951DDC82E59CE00E94E61260CFFA
:105A1000023011050CF458CF1092430B82E090E055
:105A20009093520A8093510A81E08093440B4CCFAB
:105A3000620126015FEF451A550AF6018081082EA2
:105A4000000C990B0E949C3D892B91F7F1E0EF1A15
:105A5000F108E80CF91CF7018081082E000C990B65
:105A60000E949C3D892B39F0EC14FD0420F0F1E0FC
:105A7000EF1AF108F0CFA7014F5F5F4F4C195D0996
:105A8000CA5EDE4F59834883C651D1408C149D04B1
:105A900020F4B601C4010E94FF3FCE5EDE4FE881D4
:105AA000F981C251D140CA5EDE4F88819981C651C9
:105AB000D140E80FF91F10825FCF0F5F1F4F109387
:105AC000520A0093510AF801EE0FFF1FE858F54FF4
:105AD0008091560C9091570C918380830E5B144FEC
